:020000040800F2
:100000000028002035030008850300088503000848
:100010008503000885030008850300080000000030
:100020000000000000000000000000008503000840
:100030008503000800000000850300088503000810
:100040008503000885030008850300088503000870
:100050008503000885030008850300088503000860
:100060008503000885030008850300088503000850
:100070008503000885030008850300088503000840
:100080008503000885030008850300088503000830
:100090008503000885030008850300088503000820
:1000A0008503000885030008850300088503000810
:1000B0008503000885030008850300088503000800
:1000C00085030008850300088503000885030008F0
:1000D00085030008850300088503000885030008E0
:1000E000D90200088503000800000000850300080D
:1000F00085030008850300088503000885030008C0
:1001000085030008850300088503000885030008AF
:10011000850300088503000885030008850300089F
:10012000850300088503000885030008850300088F
:1001300010B5054C237833B9044B13B10448AFF321
:1001400000800123237010BD00000020000000008B
:10015000D003000808B5034B1BB103490348AFF3B4
:10016000008008BD0000000004000020D00300084B
:1001700080B483B000AF0346FB7197F90730002BC2
:100180000BDBFB7903F01F02064997F907305B0987
:10019000012000FA02F241F8232000BF0C37BD46CF
:1001A00080BC704700E100E080B483B000AF03463C
:1001B0003960FB7197F90730002B0ADB3B68DAB234
:1001C0000C4997F907301201D2B20B4483F800238F
:1001D0000AE03B68DAB20849FB7903F00F03043BFD
:1001E0001201D2B20B441A7600BF0C37BD4680BC58
:1001F000704700BF00E100E000ED00E080B500AF17
:10020000054B064A1A6000F00BF8044BDB68034A02
:1002100043F40053D360FEE71C00002000100140AF
:1002200080B500AF284B1B68274A43F48033136026
:10023000254B9B69244A43F010039361224B9B6931
:10024000214A43F001039361204B5B681F4A23F46A
:10025000400353601D4B5B681C4A43F440135360DA
:10026000194B9B69184A43F008039361184B5B696B
:10027000174A43F400735361154B5B69144A43F406
:1002800000535361134B1B68124A43F480431360BD
:10029000104B9B680F4A43F4804393600D4B1B68DF
:1002A0000C4A43F4004313600A4B9B68094A43F429
:1002B0000043936001212820FFF776FF2820FFF7F5
:1002C00057FF00BF80BD00BF00100240001001407A
:1002D000000001400004014080B400AF134B5B6993
:1002E00003F48043002B0BD0104B5B690F4A43F49F
:1002F000804353610E4BDB680D4A23F40053D360F7
:100300000A4B5B6903F40043002B0BD0074B5B697E
:10031000064A43F400435361054BDB68044A43F447
:100320000053D36000BFBD4680BC7047000401404D
:10033000001001400D488546AFF300800C480D4980
:100340000D4A002302E0D458C4500433C4188C4230
:10035000F9D30A4A0A4C002301E013600432A24296
:10036000FBD300F011F8FFF749FFFEE7002800205B
:100370000000002000000020F00300080000002022
:1003800020000020FEE7000070B500260C4D0D4C4B
:10039000641BA410A64209D100F01AF800260A4DE9
:1003A0000A4C641BA410A64205D170BD55F8043B4D
:1003B00098470136EEE755F8043B98470136F2E7D7
:1003C000E8030008E8030008E8030008EC0300085D
:1003D000F8B500BFF8BC08BC9E467047F8B500BF32
:0803E000F8BC08BC9E46704702
:0403E80055010008B3
:0403EC0031010008D3
:0400000508000335B7
:00000001FF
